{"abi":[{"type":"constructor","inputs":[{"name":"_poolManager","type":"address","internalType":"contract IPoolManager"}],"stateMutability":"nonpayable"},{"type":"function","name":"afterAddLiquidity","inputs":[{"name":"","type":"address","internalType":"address"},{"name":"","type":"tuple","internalType":"struct PoolKey","components":[{"name":"currency0","type":"address","internalType":"Currency"},{"name":"currency1","type":"address","internalType":"Currency"},{"name":"fee","type":"uint24","internalType":"uint24"},{"name":"tickSpacing","type":"int24","internalType":"int24"},{"name":"hooks","type":"address","internalType":"contract IHooks"}]},{"name":"","type":"tuple","internalType":"struct IPoolManager.ModifyLiquidityParams","components":[{"name":"tickLower","type":"int24","internalType":"int24"},{"name":"tickUpper","type":"int24","internalType":"int24"},{"name":"liquidityDelta","type":"int256","internalType":"int256"},{"name":"salt","type":"bytes32","internalType":"bytes32"}]},{"name":"","type":"int256","internalType":"BalanceDelta"},{"name":"","type":"int256","internalType":"BalanceDelta"},{"name":"","type":"bytes","internalType":"bytes"}],"outputs":[{"name":"","type":"bytes4","internalType":"bytes4"},{"name":"","type":"int256","internalType":"BalanceDelta"}],"stateMutability":"nonpayable"},{"type":"function","name":"afterDonate","inputs":[{"name":"","type":"address","internalType":"address"},{"name":"","type":"tuple","internalType":"struct PoolKey","components":[{"name":"currency0","type":"address","internalType":"Currency"},{"name":"currency1","type":"address","internalType":"Currency"},{"name":"fee","type":"uint24","internalType":"uint24"},{"name":"tickSpacing","type":"int24","internalType":"int24"},{"name":"hooks","type":"address","internalType":"contract IHooks"}]},{"name":"","type":"uint256","internalType":"uint256"},{"name":"","type":"uint256","internalType":"uint256"},{"name":"","type":"bytes","internalType":"bytes"}],"outputs":[{"name":"","type":"bytes4","internalType":"bytes4"}],"stateMutability":"nonpayable"},{"type":"function","name":"afterInitialize","inputs":[{"name":"","type":"address","internalType":"address"},{"name":"","type":"tuple","internalType":"struct PoolKey","components":[{"name":"currency0","type":"address","internalType":"Currency"},{"name":"currency1","type":"address","internalType":"Currency"},{"name":"fee","type":"uint24","internalType":"uint24"},{"name":"tickSpacing","type":"int24","internalType":"int24"},{"name":"hooks","type":"address","internalType":"contract IHooks"}]},{"name":"","type":"uint160","internalType":"uint160"},{"name":"","type":"int24","internalType":"int24"},{"name":"","type":"bytes","internalType":"bytes"}],"outputs":[{"name":"","type":"bytes4","internalType":"bytes4"}],"stateMutability":"nonpayable"},{"type":"function","name":"afterRemoveLiquidity","inputs":[{"name":"","type":"address","internalType":"address"},{"name":"","type":"tuple","internalType":"struct PoolKey","components":[{"name":"currency0","type":"address","internalType":"Currency"},{"name":"currency1","type":"address","internalType":"Currency"},{"name":"fee","type":"uint24","internalType":"uint24"},{"name":"tickSpacing","type":"int24","internalType":"int24"},{"name":"hooks","type":"address","internalType":"contract IHooks"}]},{"name":"","type":"tuple","internalType":"struct IPoolManager.ModifyLiquidityParams","components":[{"name":"tickLower","type":"int24","internalType":"int24"},{"name":"tickUpper","type":"int24","internalType":"int24"},{"name":"liquidityDelta","type":"int256","internalType":"int256"},{"name":"salt","type":"bytes32","internalType":"bytes32"}]},{"name":"","type":"int256","internalType":"BalanceDelta"},{"name":"","type":"int256","internalType":"BalanceDelta"},{"name":"","type":"bytes","internalType":"bytes"}],"outputs":[{"name":"","type":"bytes4","internalType":"bytes4"},{"name":"","type":"int256","internalType":"BalanceDelta"}],"stateMutability":"nonpayable"},{"type":"function","name":"afterSwap","inputs":[{"name":"","type":"address","internalType":"address"},{"name":"key","type":"tuple","internalType":"struct PoolKey","components":[{"name":"currency0","type":"address","internalType":"Currency"},{"name":"currency1","type":"address","internalType":"Currency"},{"name":"fee","type":"uint24","internalType":"uint24"},{"name":"tickSpacing","type":"int24","internalType":"int24"},{"name":"hooks","type":"address","internalType":"contract IHooks"}]},{"name":"swapParams","type":"tuple","internalType":"struct IPoolManager.SwapParams","components":[{"name":"zeroForOne","type":"bool","internalType":"bool"},{"name":"amountSpecified","type":"int256","internalType":"int256"},{"name":"sqrtPriceLimitX96","type":"uint160","internalType":"uint160"}]},{"name":"delta","type":"int256","internalType":"BalanceDelta"},{"name":"","type":"bytes","internalType":"bytes"}],"outputs":[{"name":"","type":"bytes4","internalType":"bytes4"},{"name":"","type":"int128","internalType":"int128"}],"stateMutability":"nonpayable"},{"type":"function","name":"beforeAddLiquidity","inputs":[{"name":"","type":"address","internalType":"address"},{"name":"","type":"tuple","internalType":"struct PoolKey","components":[{"name":"currency0","type":"address","internalType":"Currency"},{"name":"currency1","type":"address","internalType":"Currency"},{"name":"fee","type":"uint24","internalType":"uint24"},{"name":"tickSpacing","type":"int24","internalType":"int24"},{"name":"hooks","type":"address","internalType":"contract IHooks"}]},{"name":"","type":"tuple","internalType":"struct IPoolManager.ModifyLiquidityParams","components":[{"name":"tickLower","type":"int24","internalType":"int24"},{"name":"tickUpper","type":"int24","internalType":"int24"},{"name":"liquidityDelta","type":"int256","internalType":"int256"},{"name":"salt","type":"bytes32","internalType":"bytes32"}]},{"name":"","type":"bytes","internalType":"bytes"}],"outputs":[{"name":"","type":"bytes4","internalType":"bytes4"}],"stateMutability":"nonpayable"},{"type":"function","name":"beforeDonate","inputs":[{"name":"","type":"address","internalType":"address"},{"name":"","type":"tuple","internalType":"struct PoolKey","components":[{"name":"currency0","type":"address","internalType":"Currency"},{"name":"currency1","type":"address","internalType":"Currency"},{"name":"fee","type":"uint24","internalType":"uint24"},{"name":"tickSpacing","type":"int24","internalType":"int24"},{"name":"hooks","type":"address","internalType":"contract IHooks"}]},{"name":"","type":"uint256","internalType":"uint256"},{"name":"","type":"uint256","internalType":"uint256"},{"name":"","type":"bytes","internalType":"bytes"}],"outputs":[{"name":"","type":"bytes4","internalType":"bytes4"}],"stateMutability":"nonpayable"},{"type":"function","name":"beforeInitialize","inputs":[{"name":"","type":"address","internalType":"address"},{"name":"","type":"tuple","internalType":"struct PoolKey","components":[{"name":"currency0","type":"address","internalType":"Currency"},{"name":"currency1","type":"address","internalType":"Currency"},{"name":"fee","type":"uint24","internalType":"uint24"},{"name":"tickSpacing","type":"int24","internalType":"int24"},{"name":"hooks","type":"address","internalType":"contract IHooks"}]},{"name":"","type":"uint160","internalType":"uint160"},{"name":"","type":"bytes","internalType":"bytes"}],"outputs":[{"name":"","type":"bytes4","internalType":"bytes4"}],"stateMutability":"nonpayable"},{"type":"function","name":"beforeRemoveLiquidity","inputs":[{"name":"","type":"address","internalType":"address"},{"name":"","type":"tuple","internalType":"struct PoolKey","components":[{"name":"currency0","type":"address","internalType":"Currency"},{"name":"currency1","type":"address","internalType":"Currency"},{"name":"fee","type":"uint24","internalType":"uint24"},{"name":"tickSpacing","type":"int24","internalType":"int24"},{"name":"hooks","type":"address","internalType":"contract IHooks"}]},{"name":"","type":"tuple","internalType":"struct IPoolManager.ModifyLiquidityParams","components":[{"name":"tickLower","type":"int24","internalType":"int24"},{"name":"tickUpper","type":"int24","internalType":"int24"},{"name":"liquidityDelta","type":"int256","internalType":"int256"},{"name":"salt","type":"bytes32","internalType":"bytes32"}]},{"name":"","type":"bytes","internalType":"bytes"}],"outputs":[{"name":"","type":"bytes4","internalType":"bytes4"}],"stateMutability":"nonpayable"},{"type":"function","name":"beforeSwap","inputs":[{"name":"","type":"address","internalType":"address"},{"name":"","type":"tuple","internalType":"struct PoolKey","components":[{"name":"currency0","type":"address","internalType":"Currency"},{"name":"currency1","type":"address","internalType":"Currency"},{"name":"fee","type":"uint24","internalType":"uint24"},{"name":"tickSpacing","type":"int24","internalType":"int24"},{"name":"hooks","type":"address","internalType":"contract IHooks"}]},{"name":"","type":"tuple","internalType":"struct IPoolManager.SwapParams","components":[{"name":"zeroForOne","type":"bool","internalType":"bool"},{"name":"amountSpecified","type":"int256","internalType":"int256"},{"name":"sqrtPriceLimitX96","type":"uint160","internalType":"uint160"}]},{"name":"","type":"bytes","internalType":"bytes"}],"outputs":[{"name":"","type":"bytes4","internalType":"bytes4"},{"name":"","type":"int256","internalType":"BeforeSwapDelta"},{"name":"","type":"uint24","internalType":"uint24"}],"stateMutability":"nonpayable"},{"type":"function","name":"disableDonation","inputs":[],"outputs":[],"stateMutability":"nonpayable"},{"type":"function","name":"donationEnabled","inputs":[],"outputs":[{"name":"","type":"bool","internalType":"bool"}],"stateMutability":"view"},{"type":"function","name":"donationEnabled","inputs":[{"name":"addr","type":"address","internalType":"address"}],"outputs":[{"name":"","type":"bool","internalType":"bool"}],"stateMutability":"view"},{"type":"function","name":"donationPayee","inputs":[],"outputs":[{"name":"","type":"address","internalType":"address"}],"stateMutability":"view"},{"type":"function","name":"donationPercent","inputs":[{"name":"addr","type":"address","internalType":"address"}],"outputs":[{"name":"","type":"uint256","internalType":"uint256"}],"stateMutability":"view"},{"type":"function","name":"donationPercent","inputs":[],"outputs":[{"name":"","type":"uint256","internalType":"uint256"}],"stateMutability":"view"},{"type":"function","name":"donationRecipient","inputs":[],"outputs":[{"name":"","type":"address","internalType":"address"}],"stateMutability":"view"},{"type":"function","name":"donationRecipient","inputs":[{"name":"addr","type":"address","internalType":"address"}],"outputs":[{"name":"","type":"address","internalType":"address"}],"stateMutability":"view"},{"type":"function","name":"enableDonation","inputs":[{"name":"recipient","type":"address","internalType":"address"},{"name":"percent","type":"uint256","internalType":"uint256"}],"outputs":[],"stateMutability":"nonpayable"},{"type":"function","name":"getHookPermissions","inputs":[],"outputs":[{"name":"","type":"tuple","internalType":"struct Hooks.Permissions","components":[{"name":"beforeInitialize","type":"bool","internalType":"bool"},{"name":"afterInitialize","type":"bool","internalType":"bool"},{"name":"beforeAddLiquidity","type":"bool","internalType":"bool"},{"name":"afterAddLiquidity","type":"bool","internalType":"bool"},{"name":"beforeRemoveLiquidity","type":"bool","internalType":"bool"},{"name":"afterRemoveLiquidity","type":"bool","internalType":"bool"},{"name":"beforeSwap","type":"bool","internalType":"bool"},{"name":"afterSwap","type":"bool","internalType":"bool"},{"name":"beforeDonate","type":"bool","internalType":"bool"},{"name":"afterDonate","type":"bool","internalType":"bool"},{"name":"beforeSwapReturnDelta","type":"bool","internalType":"bool"},{"name":"afterSwapReturnDelta","type":"bool","internalType":"bool"},{"name":"afterAddLiquidityReturnDelta","type":"bool","internalType":"bool"},{"name":"afterRemoveLiquidityReturnDelta","type":"bool","internalType":"bool"}]}],"stateMutability":"pure"},{"type":"function","name":"owner","inputs":[],"outputs":[{"name":"","type":"address","internalType":"address"}],"stateMutability":"view"},{"type":"function","name":"poolManager","inputs":[],"outputs":[{"name":"","type":"address","internalType":"contract IPoolManager"}],"stateMutability":"view"},{"type":"function","name":"unlockCallback","inputs":[{"name":"data","type":"bytes","internalType":"bytes"}],"outputs":[{"name":"","type":"bytes","internalType":"bytes"}],"stateMutability":"nonpayable"},{"type":"event","name":"Donated","inputs":[{"name":"recipient","type":"address","indexed":true,"internalType":"address"},{"name":"donatedAmount","type":"uint256","indexed":false,"internalType":"uint256"}],"anonymous":false},{"type":"event","name":"DonationDisabled","inputs":[{"name":"recipient","type":"address","indexed":true,"internalType":"address"},{"name":"percent","type":"uint256","indexed":false,"internalType":"uint256"}],"anonymous":false},{"type":"event","name":"DonationEnabled","inputs":[{"name":"recipient","type":"address","indexed":true,"internalType":"address"},{"name":"percent","type":"uint256","indexed":false,"internalType":"uint256"}],"anonymous":false},{"type":"error","name":"HookNotImplemented","inputs":[]},{"type":"error","name":"InvalidPool","inputs":[]},{"type":"error","name":"LockFailure","inputs":[]},{"type":"error","name":"NotPoolManager","inputs":[]},{"type":"error","name":"NotSelf","inputs":[]}],"bytecode":{"object":"0x60a060405234801561000f575f80fd5b5060405161153038038061153083398101604081905261002e916102b5565b6001600160a01b038116608052806100453061005d565b50505f80546001600160a01b031916331790556102e2565b61014d81610148604080516101c0810182525f80825260208201819052918101829052606081018290526080810182905260a0810182905260c0810182905260e08101829052610100810182905261012081018290526101408101829052610160810182905261018081018290526101a081019190915250604080516101c0810182525f80825260208201819052918101829052606081018290526080810182905260a0810182905260c08101829052600160e0820152610100810182905261012081018290526101408101829052610160810182905261018081018290526101a081019190915290565b610150565b50565b80511515612000831615151415806101745750602081015115156110008316151514155b8061018b5750604081015115156108008316151514155b806101a25750606081015115156104008316151514155b806101b95750608081015115156102008316151514155b806101d0575060a081015115156101008316151514155b806101e6575060c0810151151560808316151514155b806101fc575060e0810151151560408316151514155b806102135750610100810151151560208316151514155b8061022a5750610120810151151560108316151514155b806102415750610140810151151560088316151514155b806102585750610160810151151560048316151514155b8061026f5750610180810151151560028316151514155b8061028657506101a0810151151560018316151514155b1561029c5761029c630732d7b560e51b836102a0565b5050565b815f526001600160a01b03811660045260245ffd5b5f602082840312156102c5575f80fd5b81516001600160a01b03811681146102db575f80fd5b9392505050565b60805161122f6103015f395f81816104b3015261056e015261122f5ff3fe608060405234801561000f575f80fd5b5060043610610184575f3560e01c80639f063efc116100dd578063bb521b3211610088578063dc4c90d311610063578063dc4c90d3146104ae578063e1b4af691461031a578063f9c68ff3146104d5575f80fd5b8063bb521b3214610362578063c2aa399e1461038f578063c4e833ce146103ba575f80fd5b8063b47b2fb1116100b8578063b47b2fb1146102e4578063b6a8b0fa1461031a578063b71628b914610328575f80fd5b80639f063efc1461023c578063a910f80f146102ce578063af45de05146102dc575f80fd5b8063575e24b41161013d5780638da5cb5b116101185780638da5cb5b1461028757806391dd73461461029957806399af9357146102b9575f80fd5b8063575e24b4146101fe5780636c2bbe7e1461023c57806379dd973d1461026f575f80fd5b80632d9108641161016d5780632d910864146101b95780633440d820146101ea5780634b79a12d146101f8575f80fd5b806321d0ee7014610188578063259982e514610188575b5f80fd5b61019b610196366004610bfc565b6104ed565b6040516001600160e01b031990911681526020015b60405180910390f35b335f908152600160205260409020546001600160a01b03165b6040516001600160a01b0390911681526020016101b0565b61019b610196366004610c73565b336101d2565b61021161020c366004610cdd565b610507565b604080516001600160e01b03199094168452602084019290925262ffffff16908201526060016101b0565b61024f61024a366004610d37565b610523565b604080516001600160e01b031990931683526020830191909152016101b0565b61027761053e565b60405190151581526020016101b0565b5f546101d2906001600160a01b031681565b6102ac6102a7366004610dc2565b610561565b6040516101b09190610e01565b6102cc6102c7366004610e36565b6105bd565b005b61019b610196366004610e60565b6102cc61064c565b6102f76102f2366004610ef0565b6106e7565b604080516001600160e01b03199093168352600f9190910b6020830152016101b0565b61019b610196366004610f53565b610354610336366004610fad565b6001600160a01b03165f908152600160208190526040909120015490565b6040519081526020016101b0565b610277610370366004610fad565b6001600160a01b039081165f9081526001602052604090205416151590565b6101d261039d366004610fad565b6001600160a01b039081165f908152600160205260409020541690565b6104a1604080516101c0810182525f80825260208201819052918101829052606081018290526080810182905260a0810182905260c0810182905260e08101829052610100810182905261012081018290526101408101829052610160810182905261018081018290526101a081019190915250604080516101c0810182525f80825260208201819052918101829052606081018290526080810182905260a0810182905260c08101829052600160e0820152610100810182905261012081018290526101408101829052610160810182905261018081018290526101a081019190915290565b6040516101b09190610fc8565b6101d27f000000000000000000000000000000000000000000000000000000000000000081565b335f9081526001602081905260409091200154610354565b5f604051630a85dc2960e01b815260040160405180910390fd5b5f805f604051630a85dc2960e01b815260040160405180910390fd5b5f80604051630a85dc2960e01b815260040160405180910390fd5b335f9081526001602052604081205481906001600160a01b031615155b92915050565b6060336001600160a01b037f000000000000000000000000000000000000000000000000000000000000000016146105ac5760405163570c108560e11b815260040160405180910390fd5b6105b68383610ae1565b9392505050565b6040805180820182526001600160a01b038481168083526020808401868152325f9081526001808452908790209551865473ffffffffffffffffffffffffffffffffffffffff19169516949094178555519390920192909255915183815290917f0c8098d444fe8d8da2298a33310d8c1b06472e666c2d4d480df5d9f99ac00436910160405180910390a25050565b335f8181526001602081815260408084208151808301835281546001600160a01b03818116835283870180548488019081529989529690955273ffffffffffffffffffffffffffffffffffffffff191690915593909255825193519151929316917ff76ab3ded543ef1755790790732c7d2974494708d3e8ee96435e4533b66af033916106dc9190815260200190565b60405180910390a250565b325f9081526001602052604081205481906001600160a01b0316610716575063b47b2fb160e01b90505f610ad6565b5f8087602001351261073d5761072c8660801d90565b610735906110fd565b600f0b61074a565b61074a602088013561112a565b325f90815260016020819052604082200154919250606461076b8385611144565b610775919061115b565b325f90815260016020526040812054919250906001600160a01b031690505f6107a160208d018d610fad565b604051636eb1769f60e11b81523260048201523060248201529091505f906001600160a01b0383169063dd62ed3e90604401602060405180830381865afa1580156107ee573d5f803e3d5ffd5b505050506040513d601f19601f82011682018060405250810190610812919061117a565b90508381101561082457610824611191565b6040516370a0823160e01b81523260048201525f906001600160a01b038416906370a0823190602401602060405180830381865afa158015610868573d5f803e3d5ffd5b505050506040513d601f19601f8201168201806040525081019061088c919061117a565b6040516370a0823160e01b81526001600160a01b0386811660048301529192505f918516906370a0823190602401602060405180830381865afa1580156108d5573d5f803e3d5ffd5b505050506040513d601f19601f820116820180604052508101906108f9919061117a565b6040516323b872dd60e01b81523260048201526001600160a01b03878116602483015260448201899052919250908516906323b872dd906064016020604051808303815f875af115801561094f573d5f803e3d5ffd5b505050506040513d601f19601f8201168201806040525081019061097391906111a5565b50846001600160a01b03167f2a01595cddf097c90216094025db714da3f4e5bd8877b56ba86a24ecead8e543876040516109af91815260200190565b60405180910390a26040516370a0823160e01b81523260048201525f906001600160a01b038616906370a0823190602401602060405180830381865afa1580156109fb573d5f803e3d5ffd5b505050506040513d601f19601f82011682018060405250810190610a1f919061117a565b6040516370a0823160e01b81526001600160a01b0388811660048301529192505f918716906370a0823190602401602060405180830381865afa158015610a68573d5f803e3d5ffd5b505050506040513d601f19601f82011682018060405250810190610a8c919061117a565b905081610a9989866111c4565b14610aa657610aa6611191565b610ab088846111d7565b8114610abe57610abe611191565b5063b47b2fb160e01b9a505f99505050505050505050505b965096945050505050565b60605f80306001600160a01b03168585604051610aff9291906111ea565b5f604051808303815f865af19150503d805f8114610b38576040519150601f19603f3d011682016040523d82523d5f602084013e610b3d565b606091505b50915091508115610b5157915061055b9050565b80515f03610b72576040516314815f4760e31b815260040160405180910390fd5b805160208201fd5b6001600160a01b0381168114610b8e575f80fd5b50565b5f60a08284031215610ba1575f80fd5b50919050565b5f60808284031215610ba1575f80fd5b5f8083601f840112610bc7575f80fd5b50813567ffffffffffffffff811115610bde575f80fd5b602083019150836020828501011115610bf5575f80fd5b9250929050565b5f805f805f6101608688031215610c11575f80fd5b8535610c1c81610b7a565b9450610c2b8760208801610b91565b9350610c3a8760c08801610ba7565b925061014086013567ffffffffffffffff811115610c56575f80fd5b610c6288828901610bb7565b969995985093965092949392505050565b5f805f805f6101008688031215610c88575f80fd5b8535610c9381610b7a565b9450610ca28760208801610b91565b935060c0860135610cb281610b7a565b925060e086013567ffffffffffffffff811115610c56575f80fd5b5f60608284031215610ba1575f80fd5b5f805f805f6101408688031215610cf2575f80fd5b8535610cfd81610b7a565b9450610d0c8760208801610b91565b9350610d1b8760c08801610ccd565b925061012086013567ffffffffffffffff811115610c56575f80fd5b5f805f805f805f6101a0888a031215610d4e575f80fd5b8735610d5981610b7a565b9650610d688960208a01610b91565b9550610d778960c08a01610ba7565b94506101408801359350610160880135925061018088013567ffffffffffffffff811115610da3575f80fd5b610daf8a828b01610bb7565b989b979a50959850939692959293505050565b5f8060208385031215610dd3575f80fd5b823567ffffffffffffffff811115610de9575f80fd5b610df585828601610bb7565b90969095509350505050565b602081525f82518060208401528060208501604085015e5f604082850101526040601f19601f83011684010191505092915050565b5f8060408385031215610e47575f80fd5b8235610e5281610b7a565b946020939093013593505050565b5f805f805f806101208789031215610e76575f80fd5b8635610e8181610b7a565b9550610e908860208901610b91565b945060c0870135610ea081610b7a565b935060e0870135600281900b8114610eb6575f80fd5b925061010087013567ffffffffffffffff811115610ed2575f80fd5b610ede89828a01610bb7565b979a9699509497509295939492505050565b5f805f805f806101608789031215610f06575f80fd5b8635610f1181610b7a565b9550610f208860208901610b91565b9450610f2f8860c08901610ccd565b9350610120870135925061014087013567ffffffffffffffff811115610ed2575f80fd5b5f805f805f806101208789031215610f69575f80fd5b8635610f7481610b7a565b9550610f838860208901610b91565b945060c0870135935060e0870135925061010087013567ffffffffffffffff811115610ed2575f80fd5b5f60208284031215610fbd575f80fd5b81356105b681610b7a565b8151151581526101c081016020830151610fe6602084018215159052565b506040830151610ffa604084018215159052565b50606083015161100e606084018215159052565b506080830151611022608084018215159052565b5060a083015161103660a084018215159052565b5060c083015161104a60c084018215159052565b5060e083015161105e60e084018215159052565b5061010083015161107461010084018215159052565b5061012083015161108a61012084018215159052565b506101408301516110a061014084018215159052565b506101608301516110b661016084018215159052565b506101808301516110cc61018084018215159052565b506101a08301516110e26101a084018215159052565b5092915050565b634e487b7160e01b5f52601160045260245ffd5b5f81600f0b6f7fffffffffffffffffffffffffffffff198103611122576111226110e9565b5f0392915050565b5f600160ff1b820161113e5761113e6110e9565b505f0390565b808202811582820484141761055b5761055b6110e9565b5f8261117557634e487b7160e01b5f52601260045260245ffd5b500490565b5f6020828403121561118a575f80fd5b5051919050565b634e487b7160e01b5f52600160045260245ffd5b5f602082840312156111b5575f80fd5b815180151581146105b6575f80fd5b8181038181111561055b5761055b6110e9565b8082018082111561055b5761055b6110e9565b818382375f910190815291905056fea26469706673582212206b4670810a7a01e52c46bb11d6a816700614881f5e026230123a0af7df28770864736f6c634300081a0033","linkReferences":{}},"methodIdentifiers":{"afterAddLiquidity(address,(address,address,uint24,int24,address),(int24,int24,int256,bytes32),int256,int256,bytes)":"9f063efc","afterDonate(address,(address,address,uint24,int24,address),uint256,uint256,bytes)":"e1b4af69","afterInitialize(address,(address,address,uint24,int24,address),uint160,int24,bytes)":"a910f80f","afterRemoveLiquidity(address,(address,address,uint24,int24,address),(int24,int24,int256,bytes32),int256,int256,bytes)":"6c2bbe7e","afterSwap(address,(address,address,uint24,int24,address),(bool,int256,uint160),int256,bytes)":"b47b2fb1","beforeAddLiquidity(address,(address,address,uint24,int24,address),(int24,int24,int256,bytes32),bytes)":"259982e5","beforeDonate(address,(address,address,uint24,int24,address),uint256,uint256,bytes)":"b6a8b0fa","beforeInitialize(address,(address,address,uint24,int24,address),uint160,bytes)":"3440d820","beforeRemoveLiquidity(address,(address,address,uint24,int24,address),(int24,int24,int256,bytes32),bytes)":"21d0ee70","beforeSwap(address,(address,address,uint24,int24,address),(bool,int256,uint160),bytes)":"575e24b4","disableDonation()":"af45de05","donationEnabled()":"79dd973d","donationEnabled(address)":"bb521b32","donationPayee()":"4b79a12d","donationPercent()":"f9c68ff3","donationPercent(address)":"b71628b9","donationRecipient()":"2d910864","donationRecipient(address)":"c2aa399e","enableDonation(address,uint256)":"99af9357","getHookPermissions()":"c4e833ce","owner()":"8da5cb5b","poolManager()":"dc4c90d3","unlockCallback(bytes)":"91dd7346"},"id":96}